:100AF3005475726E206F6E206164210A0054757202
:100B03006E206F6666206164210A004572726F72FF
:100B1300210A0054686520766F6C746167652069EB
:100B230073202566560A003F065B4F666D7D077F7F
:070B33006F777C395E7971D8
:060BB300C2A77F057E00D1
:100BB900D3EF9400EE940040147D6E7C00ED1D701F
:0D0BC900011CED4C70F7EF1F70E61E80E37D
:010BD60022FC
:100BD700758921759850758C3C758AB0758DFD7532
:0E0BE7008BFDE4F587D2A9D2AFD2ACD28E221C
:100A9700EF75F06484FEEF75F06484E5F075F00A95
:100AA70084FBEF75F00A84AAF0D2A6AF06EF900B8D
:100AB7002A93F580C2A6D2A775807E120BB3E4F500
:100AC70080D2A6AF03EF93F580C2A6D2A775807D2B
:100AD700120BB3E4F580D2A6AF02EF93F580C2A65E
:0B0AE700D2A775807B120BB3E4F580F2
:010AF20022E1
:100C1100D2B600C2B600D2B67590FFD2B700C2B745
:050C210000AF90D2B706
:010C260022AB
:1009F900120BD7D2A775807FC2A7E50E6401703CA0
:100A0900F50EC2ACD299E51014601414601E2402CC
:100A190070237BFF7A0A79F3120B3AD28C80167B0A
:100A2900FF7A0B79001205ECC28C80097BFF7A0BE7
:100A3900790E120B3A3099FDC299D2ACE50D6401D9
:100A49007044F50D120C118F13AC131201D6E4FB8F
:100A5900FA79A07840120026E4FBFA7980784312EB
:100A6900012F8F0B8E0A8D098C08C2ACD2997BFF9E
:100A79007A0B79168F288E278D268C251205EC3056
:0E0A890099FDC299D2ACAF13120A97020A036C
:03000B00020BF5F0
:100BF500C0E0C0D0758C3C758AB0050FE50FB41404
:0C0C050006750F00750D01D0D0D0E03254
:03002300020B6469
:100B6400C0E0C0D0C298859911750E01E511B43169
:100B740005751000800DE511B43205751001800370
:080B8400751002D0D0D0E03260
:10002600EC4D6011E8497017ED33EC3304600DE4D4
:10003600FCFFFEFD22E933E8330470F802023F12AA
:10004600020A58046009E4CC2481500628500902AB
:100056000249284003020246C0E0EB4A7044B980D8
:1000660006D0E0FB020235EF4E701CBD8008EBFFA8
:10007600EAFEE9FD80EBE98DF0A4FEE5F002010F52
:10008600E9CDF9EAFEEBFFEF89F0A4FCE5F0CE89B5
:10009600F0A42EFFE435F0CD89F0A42DFEE435F072
:1000A6008067EF4E7005BD80D780C3EF8BF0A4ACA0
:1000B600F0EE8BF0A42CFCE435F0F8EF8AF0A42CDB
:1000C600E5F038FCE433CB8DF0A42CFCE5F03BF8EE
:1000D600EE8AF0A42CFCE5F038F8E433CF89F0A4DE
:1000E6002CFCE5F038CF3400CE89F0A42FFFE5F0E4
:1000F6003EFEE433C98DF0A42EFEE5F039CD8AF03C
:10010600A42FFFE5F03EFEE43DFD33D0E0FB5007B3
:100116000BBB000F020249EC2CFCEF33FFEE33FE63
:06012600ED33FD02022191
:10012C00020249EC5D046005E85904700302023FC9
:10013C0012020A580460F6EC4860F2EC7004FDFE02
:10014C00FF22C860DB2481C85009C39860025006A6
:10015C000202469850CAF582E9294B4A7005AB82D7
:10016C0002023575F0007C1A7880C3EF9BEE9AED95
:10017C0099400DC3EF9BFFEE9AFEED99FDE842F01E
:10018C00DC23ACF0D0E0FFD0E0FED0E0FDAB822071
:10019C00E7101BEB60BAEC2CFCEF33FFEE33FEEDFB
:1001AC0033FD020221E803F830E705C0F075F000DA
:1001BC00EF2FFFEE33FEED33FD40B830E7C280AADF
:1001CC0075F020800E75F010800575F0087D007EAE
:1001DC00007F003392D530D503120546EC33401026
:1001EC00EF33FFEE33FEED33FDEC33FCD5F0ED22B7
:0E01FC00E5F0247EA2D513CC92E7CDCEFF22F3
:10058A00E5392425F8E6053922782230070278254C
:10059A00E475F0011205540204EE2000EB7F2ED21E
:1005AA00008018EF540F2490D43440D4FF30040B49
:1005BA00EF24BFB41A0050032461FFE53A60021524
:1005CA003A053DE53D7002053C30070D7822E47599
:1005DA00F001120554EF020534020B8C7403D207A2
:1005EA008003E4C207F5398B228A238924E4F53A89
:1005FA00F53CF53DE53A60077F201205C580F575A3
:10060A003BFFC201C200C202C203C205C206C2083F
:10061A00120593FF700D3007057F001205D6AF3D16
:10062A00AE3C22B4255FC2D5C204120593FF24D082
:10063A00B40A00501A75F00A783A30D50508B6FFA0
:10064A000106C6A426F620D5047002D20380D92456
:10065A00CFB41A00EF5004C2E5D2040208C3D20193
:10066A0080C6D20080C0D20280BCD2D580BAD20560
:10067A0080B47F201205C52002077401B53A0040F4
:10068A00F112058AFF1205C50205FED208D20680BC
:10069A009512058AFB12058AFA12058AF94A4B70E5
:1006AA000679BA7A097BFF20022EE53A602A7E0093
:1006BA008E8275830012050760060EEE653B70F0A8
:1006CA00C2D5EBC0E0EAC0E0E9C0E0EE120923D0EF
:1006DA00E0F9D0E0FAD0E0FB1204EEFF60AAEBC02A
:1006EA00E0EAC0E0E9C0E01205C5D0E02401F9D093
:1006FA00E03400FAD0E0FBE53B0460DCD53BD9806E
:10070A0087D20280A212090660F7E53B7001041243
:10071A000254A93B600DE53B600914F53B1209AD93
:10072A00EF60F3EA30E702F404C3995077EAF4255C
:10073A003B0430E701E404F53B800D12090660C171
:10074A00EA053B253B120254EA7838F630E701E421
:10075A00253B04D53B0420050114120923E4C0E01B
:10076A001209AD7838E6601320E70714F61205ADD2
:10077A00802204F6D0E014C0E07F001205ADE53B0C
:10078A0060071205A4153B800B3005031205A4D09F
:10079A00E00205FED0E00480C512090660A0E53B30
:1007AA00041202547838EAF6E53B20050260010497
:0507BA002404120923D4
:1007BF0074FF04C0E01209AD1205ADE53B20050240
:1007CF0060031205A4D0E0B53BE87F451205B7786A
:1007DF0038E67F2B30E7047F2DF404C0E01205C507
:1007EF00D0E075F00A84C0F01205AED0E01205AE6D
:1007FF000205FE791080027908C206C2088008D26D
:10080F00D5790A8004790AC2D5E53B047002F53B1D
:10081F00E4FAFDFEFF12058AFC7B08200113120586
:10082F008AFD7B1030000A12058AFE12058AFF7BB3
:10083F0020EC3382D592D55013C3E43000069FFFCE
:10084F00E49EFEE42001039DFDE49CFCE4CBF8C292
:10085F0001EC700CCFCECDCCE824F8F870F38017F4
:10086F00C3EF33FFEE33FEED33FDEC33FCEB33FB25
:10087F00994002FB0FD8E9EB300105F8D0E0C448EE
:10088F00B201C0E00AEC4D4E4F78207B0070C2EAF7
:10089F00B53B0040BCC0E0120925D0F0D0E02001EC
:1008AF0004C4C0E0C4B201C0F01205AED0F0D5F060
:1008BF00EB0205FE120564069B53080258066C4CAA
:1008CF0006684208064F080E44080E490681430881
:1008DF00145507454607A345070F4709DA50067019
:1008EF002D06742E06972B06782306952009C32A0A
:1008FF000630480000068FE53BB4FF03753B061238
:10090F00058AFC12058AFD12058AFE12058AFF78F8
:10091F0031020283790AA2D5200314300509B910D8
:10092F00020404B9080104A2D520060250010420D4
:10093F0002689202B53A005034C0E07F20300319AC
:10094F007F30A20272067205500F12097CC202C2DA
:10095F0006C205C2087F30800F300503E9C0E012E0
:10096F0005C5300503D0E0F9D0E0B53ACC30051716
:10097F007F30B9100C1205C57F583004077F78807F
:10098F0003B908031205C53002057F2D0205C57F87
:10099F00202008F87F2B2006F322920280CF7F00C1
:1009AF00B4070050052431F8E6FF22286E756C6CF1
:1009BF002900D20112058A3001F8C201783A30D5E8
:1009CF000108F60206302D5043495812058A2403B8
:1009DF00B405004001E49009D5931205B6743A129C
:0A09EF0005B6D203753A04020802AF
:10020A00E9D2E7C933E833F892D5EDD2E7CD33EC3A
:07021A0033FC5002B2D522B3
:10022100EC30E7100FBF000C0EBE00080DBD00043E
:100231000BEB6014A2D5EB13FCED92E7FD2274FFEA
:10024100FCFDFEFF22E480F8A2D574FF13FC7D8043
:03025100E480EF57
:10025400F920E72824F950037907E4F42402FB1871
:10026400DBFDE624FB5014E9600DE4F618E604F621
:0F027400B40A08E4F6D9F57401F60A22C2D522BD
:10028300ED33EC3392D5FA602AB4FF33EDC2E77B4A
:10029300FF60067A0279A8E4227A0279B120D504B4
:1002A3007A0279AC224E614E002B494E46002D490D
:1002B3004E4600E47A08F608DAFC7B00740722E86D
:1002C300C0E0ECC0E0EDC0E0EEC0E0EFC0E0EA75F6
:1002D300F010A4CAABF075F04DA42BFBE435F0FC91
:1002E300EA2410FAEB34C5FBEC34D9FCEDC2E7FF8A
:1002F30075F056A4F42411C5F0F434C58FF0A42A84
:10030300E5F03BE43CF620E7141204AED0E0FFD066
:10031300E0FED0E0FDD0E0FC12012F8014F40412C3
:1003230004AED0E0FFD0E0FED0E0FDD0E0FC120050
:1003330026D0E0F8E6FAEDD2E7CD33EC332482FBA6
:10034300E4C3CF33CFCE33CECD33CD33DBF37B0713
:1003530075F00A846004F6081B0AE5F0F6088FF0CE
:10036300740AA4FFACF08EF0740AA42CFEACF05017
:10037300010C8DF0740AA42CFDE435F0F608DBDEE5
:03038300740722DA
:1003860002023FE86480F8E933E83360110460F064
:10039600ED33EC337009E8FCE9FDEAFEEBFF2204DD
:1003A60060DED3EB9FEA9EE99DE8C2E78CF0C2F7D8
:1003B60095F0400CE8CCF8E9CDF9EACEFAEBCFFBA4
:1003C60012020A85D0F05804700320D5B3E80470F1
:1003D600075002B2D502024992D5EC0460F7E4CC8C
:1003E600C0E0C398F8603B94186008400DD0E0FB6D
:1003F600020221E4FBFAC9FC8028E830E406E4C9DD
:10040600FBE4CAFCE830E305E4C9CACBFCE85407C0
:100416006010F8C3E913F9EA13FAEB13FBEC13FCCB
:10042600D8F130F52FC3E49CFCEF9BFFEE9AFEED6E
:1004360099FDD0E0FBEF4E4D4C701222DB03020219
:1004460046EC2CFCEF33FFEE33FEED33FDED30E7EB
:10045600EB020221EF2BFFEE3AFEED39FDD0E0FB79
:1004660050130BBB0003020249ED13FDEE13FEEF22
:0804760013FFEC13FC0202214C
:10047E003F8000004120000042C80000447A000086
:10048E00461C400047C35000497424004B18968008
:10049E004CBEBC205A0E1BCA6753C21C749DC5AEFF
:1004AE00FB60065407601C23231204DCEB543860F7
:1004BE00091204C81204D7120026ECF8EDF9EEFA70
:1004CE00EFCB22EB1204D780F1543803241C900496
:1004DE007EFE93FC0EEE93FD0EEE930ECE93FF2258
:0300000002000EED
:0C000E00787FE4F6D8FD75813D0209F909
:1004EE00BB010689828A83E0225002E722BBFE020C
:0904FE00E32289828A83E493223F
:10050700BB010CE58229F582E5833AF583E02250A9
:1005170006E92582F8E622BBFE06E92582F8E222F3
:0D052700E58229F582E5833AF583E493220D
:10053400BB010689828A83F0225002F722BBFE01A6
:02054400F322A0
:0E054600C3E49FFFE49EFEE49DFDE49CFC22C6
:10055400FAE6FB0808E6F925F0F618E6CA3AF622A8
:10056400D083D082F8E4937012740193700DA3A326
:1005740093F8740193F5828883E47374029368603A
:06058400EFA3A3A380DF3A
:100B8C00EFB40A07740D120B97740A309811A899D8
:100B9C00B8130CC2983098FDA899C298B811F630C9
:070BAC0099FDC299F59922A1
:100B3A001204EE601CFF09E970010AC0E0EAC0E095
:100B4A00EBC0E0120B8CD0E0FBD0E0FAD0E0F980E9
:0A0B5A00DF7F0A120B8CE4FEFF227D
:00000001FF
