:100251007777772E74786D63752E636F6D00CCECB4
:10026100CFE9B5E7D7D3002D2D2D2D2D2D2D2D0027
:0A020700C2B6C2B48F807F057E00EE
:10021100E4FDFCC3ED9FEC9E5015E4FBFA0BBB0023
:0F022100010AEB646E4A70F50DBD00010C80E41C
:0102300022AB
:0D028F00C2B5120207D2B4120211C2B4228D
:0D029C00D2B5120207D2B4120211C2B42270
:10023100EF70047F808013BF01047F90800CBF02A8
:10024100047F888005BF03027F98EF2DFF02028F94
:100003001201BAAB07AA067C277D10120165EF2403
:1000130030F5087C277D10AF03AE021201657E0325
:100023007FE8CFCDCFCECCCE120165EF2430F509DA
:100033007C037DE8AF03AE021201657E007F64CFCF
:10004300CDCFCECCCE120165EF2430F50A7C007DF6
:1000530064AF03AE021201657E007F0ACFCDCFCE1F
:10006300CCCE120165EF2430F50B7C007D0AAF0383
:10007300AE02120165ED2430F50C1201BAAA06ABEB
:10008300077C277D10120165EF2430F50D7C277D59
:1000930010AF03AE021201657E037FE8CFCDCFCE52
:1000A300CCCE120165EF2430F50E7C037DE8AF035F
:1000B300AE021201657E007F64CFCDCFCECCCE12CF
:1000C3000165EF2430F50F7C007D64AF03AE0212AF
:1000D30001657E007F0ACFCDCFCECCCE120165EF76
:1000E3002430F510AE02AF037C007D0A120165EDEA
:0400F3002430F511AF
:0100F70022E6
:10027100D2B77F3012028F12020D7F0C12028F1241
:0E028100020D7F0112028F7F057E0002021126
:1000F800C2A6C2A77F0A7E00120211120271E4FD95
:100108007F01120231E4F9E990025193FF6006126F
:10011800029C0980F2E4FD7F02120231E4F9E990C1
:10012800025F93FF600612029C0980F2E4FD7F03E0
:10013800120231E4F9E990026893FF600612029C0A
:100148000980F2E4FDFF120231120003E4F9740899
:0D01580029F8E6FF12029C09B90AF380E6BF
:030000000202A950
:0C02A900787FE4F6D8FD7581150200F89E
:10016500BC000BBE0029EF8DF084FFADF022E4CC7E
:10017500F875F008EF2FFFEE33FEEC33FCEE9DEC47
:10018500984005FCEE9DFE0FD5F0E9E4CEFD22ED8D
:10019500F8F5F0EE8420D21CFEADF075F008EF2FD7
:1001A500FFED33FD4007985006D5F0F222C398FDC8
:0501B5000FD5F0EA2265
:1001BA00AC12AD13AE14AF157810EC4D4E4F70045F
:1001CA007CA57DA5C3EC13FCED13FDEE13FEEF1326
:1001DA00FF5010EC64CCFCED644CFDEE644EFEEF77
:1001EA0064CEFFD8DF8C128D138E148F15EE547FD8
:0D01FA00FE228E128F1374A5F514F5152248
:00000001FF
