:1000DF003F065B4F666D7D077F6F777C395E797169
:0E00EF001200C5C290AD0BAF0A12005680F78A
:100056008D0DD2A6EF9000DF93F580C2A6D2A775CC
:1000660080FE120086E4F580D2A6E50D9000DF93AF
:10007600F580C2A6D2A77580FD120086E4F580221F
:06008600C2A77F057E0009
:10008C00D3EF9400EE940040147D6E7C00ED1D7057
:0D009C00011CED4C70F7EF1F70E61E80E3B5
:0100A9002234
:1000C500438911758C4C758AD0758D4C758BD0D242
:0A00D500AFD2A9D2ABD28CD28E229A
:03000B000200AA46
:1000AA00C0E0C0D0758C4C758AD00508E508B40448
:0B00BA0005750800B290D0D0D0E032F5
:03001B0002001EC2
:10001E00C0E0C0F0C0D0758D4C758BD00509E509D8
:10002E00B4141E750900050CE50CB43C03750C00E8
:10003E00E50C75F00A84F50AE50C75F00A8485F076
:08004E000BD0D0D0F0D0E0325D
:0300000002000EED
:0C000E00787FE4F6D8FD75810D0200EF4C
:00000001FF
